:0300000002000EED
:0C000E00787FE4F6D8FD758120020055D3
:0A0205003F065B4F666D7D077F6FBB
:0B01F900010900010800010A00C1001C
:0301DD007F64FE3E
:0B01E000EF1FAC0670011E4C70F622F1
:0401A9007F0A7E004B
:1001AD00E4FDFCC3ED9FEC9E5015E4FBFA0BBB0088
:0F01BD00010AEB646E4A70F50DBD00010C80E481
:0101CC002210
:10017D00E50975F00A8490020593F50BE50975F014
:10018D000A84E5F093F50CE50875F00A8493F50DF6
:0C019D00E50875F00A84E5F093F50E22E9
:1001450075A0FE850B807F647E001201E0E4F580DA
:1001550075A0FD850C801201DDE4F58075A0FB8599
:100165000D801201DDE4F58075A0F7850E807F64B2
:08017500FE1201E0E4F5802216
:10009A0020B0101201A920B00AB20020B005120146
:1000AA004580F820B1211201A920B11B0509C3E539
:1000BA0009943C748094804003E4F50912017D2080
:1000CA00B10512014580F820B2211201A920B21B04
:1000DA000508C3E508943C748094804003E4F5085D
:0C00EA0012017D20B20512014580F822B1
:1001CD00438901758C3C758AB0D2AFD2A9D28C22ED
:0E01EB0012017D1201CD12009A12014580F81A
:03000B000200F6FA
:1000F600C0E0C0F0C083C082C0D0758C3C758AB0A9
:10010600300031050AC3E50A9414748094804024B3
:10011600750A000508E508943C74809480401275C1
:1001260008000509E509943C74809480400375092C
:0F0136000012017DD0D0D082D083D0F0D0E03243
:10001A000201EBE493A3F8E493A34003F68001F210
:10002A0008DFF48029E493A3F85407240CC8C333E7
:10003A00C4540F4420C8834004F456800146F6DFB6
:10004A00E4800B01020408102040809001F9E47E4C
:10005A00019360BCA3FF543F30E509541FFEE493AB
:10006A00A360010ECF54C025E060A840B8E493A372
:10007A00FAE493A3F8E493A3C8C582C8CAC583CA9D
:10008A00F0A3C8C582C8CAC583CADFE9DEE780BE55
:0102040000F9
:00000001FF
